:0400000080311D2806
:100008007E14803120007F08F200901E18282100FD
:10001800901E18289D140530890B10282000901276
:1000280021001C082C00980072082000FF007E1098
:10003800090080311F28F001F1017E102000803175
:10004800252860303200990003309F00FF302100DE
:100058008E008030200097004930980021008E12D1
:1000680002303D00A50001303C008F00093021001E
:100078009D0050309E00FF3020009E001F152C0070
:100088009801803099009B30200096008B170B1741
:06009800210090164E2825
:020000040001F9
:08000E00ECFFF3FFFFFFFFFF11
:00000001FF
